:020000040000FA
:10000000C0790020CD4C01004BAE0200B94C01007C
:10001000B94C0100B94C0100B94C010000000000CE
:10002000000000000000000000000000354E01004C
:10003000B94C010000000000D54D0100B94C010091
:100040002D500100F5DA02002D5001002D50010065
:100050002D5001002D5001002D5001002D500100A8
:100060000BDB02002D5001002D500100DFDA0200F1
:100070002D5001002D5001002D5001002D50010088
:100080002D5001002D5001002D5001002D50010078
:100090002D5001002D5001002D5001002D50010068
:1000A0002D5001002D5001002D5001002D50010058
:1000B0002D5001002D5001002D5001002D50010048
:1000C0002D5001002D5001002D5001002D50010038
:1000D0002D5001002D5001002D5001002D50010028
:1000E0002D5001002D5001002D5001002D50010018
:1000F0002D5001002D5001002D5001002D50010008
:1001000080EA101404F0F01480EA0410604081EAE0
:10011000111404F0F01481EA0411614082EA12140F
:1001200004F0F01482EA0412624083EA131404F02B
:10013000F01483EA0413634080EA102404F47F443B
:1001400080EA0420604081EA112404F47F4481EABB
:100150000421614082EA122404F47F4482EA0422EA
:10016000624083EA132404F47F4483EA0423634057
:1001700081EA500404F0553480EA4400614083EA87
:10018000520404F0553482EA4402634082EA900447
:1001900004F0333480EA8400624083EA910404F07E
:1001A000333481EA84016340704700BF82EA9004DF
:1001B00004F0333480EA8400624083EA910404F05E
:1001C000333481EA8401634081EA500404F05534F9
:1001D00080EA4400614083EA520404F0553482EA24
:1001E0004402634080EA102404F47F4480EA04203F
:1001F000604081EA112404F47F4481EA04216140D3
:1002000082EA122404F47F4482EA0422624083EAF0
:10021000132404F47F4483EA0423634080EA101427
:1002200004F0F01480EA0410604081EA111404F034
:10023000F01481EA0411614082EA121404F0F0140F
:1002400082EA0412624083EA131404F0F01483EA91
:1002500004136340704700BF2DE9F14F94464FEA05
:10026000930B8A68CB6808684968FFF749FF0BF170
:10027000060E33E083EA134480EA134582EA13470B
:1002800046BA96EA3444604000F00F1684EA063419
:1002900020F00F1684EA161054BA94EA0106724050
:1002A00002F00F1486EA043622F00F1486EA1412C4
:1002B0004CBA6540694001F00F1485EA043521F01D
:1002C0000F1485EA14115CBA67407B4003F00F14E9
:1002D00087EA043723F00F1487EA1413BCE8F00010
:1002E0006040694072407B4000F0E03400F010351F
:1002F00000F00F3040EA540040EAC50080EA900464
:1003000004F0332480EA8400604001F0E03401F01E
:10031000103501F00F3141EA540141EAC50181EA8B
:10032000910404F0332481EA8401614002F0E03456
:1003300002F0103502F00F3242EA540242EAC502DE
:1003400082EA920404F0332482EA8402624003F0D9
:10035000E03403F0103503F00F3343EA540343EA6B
:10036000C50383EA930404F0332483EA84036340DF
:1003700081EA324787EA134581EA354690EA060466
:1003800084EA034B82EA1B4280EA044484EA05447F
:1003900083EA144A85EA14448BEA044B84EA37441E
:1003A00081EA0B4181EA164104EA0A00454082EAEB
:1003B00004082BEA080041408AEA0B0602EA06001C
:1003C00084EA34438AEA3A4603EA0607784045401D
:1003D000414088EA38478BEA3B4007EA000985EA52
:1003E000090583EA0709464006EA0906714085EADD
:1003F000010005EA3546464006EA314181EA3041CE
:1004000081EA364606EA304686EA3546344008EA4E
:10041000010886EA01052A4086EA364003405A4030
:1004200081EA31431F407C4080EA030709EA07095B
:1004300088EA0908544088EA020806EA0A0601EA3E
:100440000B018AEA0B0215408AEA3A421040454005
:100450008BEA3B4003405E404240174079404D40AC
:100460004E40E443F64386EA18435D4085EA054082
:1004700083EA134386EA034183EA384284EA11435C
:1004800083EA04435FEA3343BEF1010E3FF6F2AE66
:100490001ED4BCE8F0006040694072407B4020BC44
:1004A000FFF784FE28606960AA60EB60BDE8F08F0A
:1004B0002DE9E0414FF2F00280EA1031114080EA6C
:1004C0000130484041088208C3084FF0000E4FE752
:1004D00000F0113001F0113102F0113203F011334C
:1004E00040EA410040EA820040EAC3004FF2F002D5
:1004F00080EA1031114080EA01304840BDE8E081D7
:100500002DE9F04F02F11C050646074600EB850871
:1005100051F8040B043A46F8040BF9D14FF0010CE2
:10052000FFF7C6FF5FEA302080EA0C001ECF414093
:100530004A4053405C401EC62000464517D04FEA53
:100540004C0C1CF4807F18BFACF1E50C2C2DE7D0CF
:100550003C2D06D1FFF7ACFF06CF41404A4006C60E
:10056000100006CF41404A4006C61000D8E736E9E1
:100570000F00FFF7C5FD043D86E80F00F7D1BDE889
:10058000F08F00BF2DE9F14F03F11C0402EB840C46
:100590004FEA930B8A68CB6808684968FFF7B0FD9B
:1005A0003CE9F0006040694072407B400BF1060E70
:1005B0004EE083EA134480EA134582EA134746BAC1
:1005C00096EA3444604000F00F1684EA063420F0C6
:1005D0000F1684EA161054BA94EA0106724002F02B
:1005E0000F1486EA043622F00F1486EA14124CBA6D
:1005F0006540694001F00F1485EA043521F00F14BD
:1006000085EA14115CBA67407B4003F00F1487EA57
:10061000043723F00F1487EA141344BA44404DBA48
:100620004D4056BA56405FBA5F4087EA174886EA9F
:10063000174B84EA17464FEA38488BEA1B4485EA91
:100640001B4788EA1B4580EA3440694072407B4082
:1006500000F0703400F0803500F00F3040EA4400C4
:1006600040EAD50080EA900404F0332480EA840054
:10067000604001F0703401F0803501F00F3141EA43
:10068000440141EAD50181EA910404F0332481EA6E
:100690008401614002F0703402F0803502F00F32C4
:1006A00042EA440242EAD50282EA920404F0332488
:1006B00082EA8402624003F0703403F0803503F074
:1006C0000F3343EA440343EAD50383EA930404F077
:1006D000332483EA84036340C943DB4381EA000493
:1006E00083EA044686EA020183EA014382EA33454B
:1006F00083EA14435C4084EA00077FEA040A8AEA3A
:10070000024A8AEA010B87EA11488AEA374A80EAF4
:10071000060181EA1A418AEA030A04EA0A0045400E
:1007200088EA040707EA0B0041408AEA0B0608EA58
:10073000060084EA34428AEA3A4602EA060358404E
:100740004540414087EA37438BEA3B4003EA0009D2
:1007500085EA090582EA0309464006EA090671406E
:1007600085EA010005EA3546464006EA314181EA5C
:10077000304181EA364606EA304686EA354634405C
:100780000F4086EA010508EA050886EA364002407D
:1007900088EA020881EA314213405C4080EA0203A1
:1007A00009EA030987EA0907674088EA040806EAB4
:1007B0000A0601EA0B018AEA0B0425408AEA3A4458
:1007C000204045408BEA3B4B02EA0B02564084EA4C
:1007D0000B04234059406E40694087EA364080EA66
:1007E000384080EA060380EA104481EA134585EA2E
:1007F000344585EA17427D4082EA354180EA05406A
:100800003CE9F0006040694072407B40BEF1010E5F
:100810003FF6CFAE20BCFFF7C9FC28606960AA6034
:10082000EB60BDE8F08F00BFFFF76ABE2DE9F0076F
:1008300091E8F807B2E802105B1854EB0C04B2E838
:1008400002104D4156EB0C06B2E802104F4158EB36
:100850000C08B2E8021059EB01095AEB0C0A80E8C7
:10086000F80780410130BDE8F00770472DE9F00737
:1008700091E8F807B2E802105B1A74EB0C04B2E8D6
:1008800002108D4176EB0C06B2E802108F4178EB36
:100890000C08B2E8021079EB01097AEB0C0A80E847
:1008A000F80780414042BDE8F00770472DE9F007A6
:1008B000524290E87800B1E880071740DB1918EA47
:1008C000020854EB080419EA020955EB09051AEA73
:1008D000020A56EB0A0678C090E87800B1E8800773
:1008E00017407B4118EA020854EB080419EA020990
:1008F00055EB09051AEA020A56EB0A0678C0804150
:100900000130BDE8F00770472DE9F007524290E84A
:100910007800B1E880071740DB1B18EA020874EB87
:10092000080419EA020975EB09051AEA020A76EBCE
:100930000A0678C090E87800B1E880071740BB410C
:1009400018EA020874EB080419EA020975EB0905B4
:100950001AEA020A76EB0A0678C080414042BDE8F6
:10096000F00770472DE9F00152424FF0040890E87B
:10097000300091E8C000A31B1340E41AF618EB1BEB
:100980001340ED1AFF1830C0C0C1B8F10108EED114
:10099000BDE8F001704700BF00B592E8DC072DE923
:1009A000DC07B1E8805702B4A7FB02510A95A8FB07
:1009B000020BE7FB6310E9FB62B00B91A8FB03514C
:1009C000EAFB6201E7FB64B5E7FB6605E8FB661539
:1009D000CDF830B0A9FB03B6EAFB6316ECFB635617
:1009E000E8FB640BE9FB641BEAFB645BECFB646BF8
:1009F0000D90ACFB0230059CEEFB6250E9FB64609D
:100A0000EAFB64B0E7FB6431E8FB6451069CE8FB59
:100A10006461E9FB64B1EAFB64010E93A7FB043255
:100A2000079CE7FB6462E8FB64B2E9FB6402EAFB53
:100A30006412049CE9FB6453EAFB6463089CE7FBD3
:100A400064B3E8FB6403E9FB6413EAFB64230F95DA
:100A50005DF8049B99E80006DDF80080A9FB0854C6
:100A6000EAFB68B4DDF81080ECFB6804EEFB681468
:100A7000E9FB6824EAFB6834DDF80480EEFB686576
:100A8000E9FB68B5EAFB6805DDF81480ECFB681546
:100A9000EEFB6825E9FB6835EAFB68450F96DDF853
:100AA0000880AEFB0876E9FB6806EAFB6816DDF80D
:100AB0001880ECFB6826EEFB6836E9FB6846EAFB2B
:100AC0006856DDF80C80ECFB68B7EEFB6807E9FBC5
:100AD0006817EAFB6827DDF81C80ECFB6837EEFB43
:100AE0006847E9FB6857EAFB686708B000BD00BFCC
:100AF0002DE9F14F87B0FFF74FFFDDF81C8008F1BB
:100B0000200888E8FF00FFBC87E87F08BDE8F08F79
:100B100000B591E89857A3FB03520195A3FB04018C
:100B2000E3FB6420E3FB67100292A3FB0752E3FBA5
:100B30006802E4FB6415E3FB6805E3FB69250391A8
:100B4000A4FB07B6E3FB6926E3FB6A56E4FB670BED
:100B5000E4FB682BE3FB6A5BE3FB6C6B0490A4FB98
:100B60000810E4FB6950E3FB6C60E3FB6EB0E7FB4D
:100B70006721E4FB6951E4FB6A61E3FB6EB1E4FBCE
:100B80006E010592A7FB0832E4FB6A62E4FB6CB2DB
:100B9000E4FB6E02E7FB6E12E7FB6853E7FB696359
:100BA000E4FB6CB3E7FB6C03E7FB6E13E8FB6E231F
:100BB0000695A7FB0954E7FB6AB4E7FB6C04E8FB66
:100BC0006C14E8FB6E24E9FB6E34E8FB6865E7FB18
:100BD0006AB5E8FB6A05E8FB6C15E9FB6C25E9FBE7
:100BE0006E35EAFB6E450796A8FB0976E8FB6A06B8
:100BF000E9FB6A16E9FB6C26EAFB6C36EAFB6E46FB
:100C0000ECFB6E56E8FB69B7E9FB6907E9FB6A177D
:100C1000EAFB6A27EAFB6C37ECFB6C47ECFB6E5790
:100C2000EEFB6E6700BD00BF2DE9F14F87B0FFF707
:100C30006FFFDDF81C8008F1200888E8FF00FFBC8A
:100C400087E87F08BDE8F08F30B44FF0000310F85C
:100C5000014B11F8015B013A84EA050443EA0403FD
:100C6000F5D1A3F101034FEAD37030BC704700BF48
:100C70004FF0000310F8012B013943EA0203F9D1C8
:100C8000A3F101034FEAD370704700BF30B411F8ED
:100C9000014B12F8015B6C4000F8014B013BF6D1AF
:100CA00030BC70472DE9F04F90E8F00F00F14000A4
:100CB0004FF0040E59E0F0B4826BC36B0468052555
:100CC000242687593C444FEA724787EAF24787EA6D
:100CD00092273C4442684FEAF21787EAB24787EA14
:100CE000D2073C4440F8044B032D08BF6FF01B06AD
:100CF00087593A444FEA734787EAF34787EA9327CD
:100D00003A4443684FEAF31787EAB34787EAD307C1
:100D10003A4440F8042B87593B444FEA744787EA2A
:100D2000F44787EA94273B4444684FEAF41787EA7C
:100D3000B44787EAD4073B4440F8043B013DC0D1A7
:100D4000A0F13C00076A3C444FEA724787EAF24749
:100D500087EA92273C4402684FEAF21787EAB247D3
:100D600087EAD2073C44C463F0BC4FF0020288EA31
:100D7000781C8CEAF84C0BEBBC1C8AEA090303EAEA
:100D8000080383EA0A039C4450F8043B9C4451F84E
:100D9000043B9C44674444EA050B0BEA060B04EA57
:100DA00005034BEA030BE34484EAF42383EA345358
:100DB0000BEBB30B87EA771C8CEAF74C0AEBBC1CF5
:100DC00089EA080303EA070383EA09039C4450F80D
:100DD000043B9C4451F8043B9C4466444BEA040A9F
:100DE0000AEA050A0BEA04034AEA030AE2448BEA28
:100DF000FB2383EA3B530AEBB30A86EA761C8CEAB0
:100E0000F64C09EBBC1C88EA070303EA060383EAF5
:100E100008039C4450F8043B9C4451F8043B9C4418
:100E200065444AEA0B0909EA04090AEA0B0349EA9C
:100E30000309E1448AEAFA2383EA3A5309EBB30946
:100E400085EA751C8CEAF54C08EBBC1C87EA0603A6
:100E500003EA050383EA07039C4450F8043B9C44DF
:100E600051F8043B9C44644449EA0A0808EA0B0828
:100E700009EA0A0348EA0308E04489EAF92383EA15
:100E8000395308EBB30884EA741C8CEAF44C07EB82
:100E9000BC1C86EA050303EA040383EA06039C44B8
:100EA00050F8043B9C4451F8043B9C44E34448EA1A
:100EB000090707EA0A0708EA090347EA030767443C
:100EC00088EAF82383EA385307EBB3078BEA7B1CE5
:100ED0008CEAFB4C06EBBC1C85EA040303EA0B031B
:100EE00083EA05039C4450F8043B9C4451F8043BBE
:100EF0009C44E24447EA080606EA090607EA0803B2
:100F000046EA0306664487EAF72383EA375306EB8B
:100F1000B3068AEA7A1C8CEAFA4C05EBBC1C84EA1C
:100F20000B0303EA0A0383EA04039C4450F8043BDE
:100F30009C4451F8043B9C44E14446EA070505EA19
:100F4000080506EA070345EA0305654486EAF62331
:100F500083EA365305EBB30589EA791C8CEAF94C30
:100F600004EBBC1C8BEA0A0303EA090383EA0B03C4
:100F70009C4450F8043B9C4451F8043B9C44E0449E
:100F800045EA060404EA070405EA060344EA030402
:100F9000644485EAF52383EA355304EBB304013A4C
:100FA0007FF4E5AEA0F14000BEF1010E7FF483AE08
:100FB000A0F1400C9CE80F00001949199219DB19A7
:100FC000ACE80F009CE80F004044494452445B44A5
:100FD000ACE80F00BDE8F08F2DE9F00791E8F807C5
:100FE000B2E802105B1854EB0C04B2E802104D4159
:100FF00056EB0C06B2E802104F4158EB0C08B2E871
:10100000021059EB01095AEB0C0A8941B3F1FF3385
:1010100074F1FF3475F1FF3576F1000677F10007C2
:1010200078F1000879F101097AF1FF3A51F10001F4
:101030005B184C414D4156F1000657F1000758F13D
:10104000000859EBD1795AEB010A80E8F807BDE8AE
:10105000F00770472DE9F00791E8F807B2E80210B1
:101060005B1A74EB0C04B2E802108D4176EB0C06AF
:10107000B2E802108F4178EB0C08B2E8021079EB6D
:1010800001097AEB0C0A89415B184C414D4156F13C
:10109000000657F1000758F1000859EBD1795AEBD7
:1010A000010A80E8F807BDE8F007704718EB04086C
:1010B00059EB05095AEB060A5BEB070B5FF0000CD6
:1010C0004CF1000C18EB050859EB06095AEB070A1E
:1010D0005BEB070B50EB0C005FF0000C51EB0C01CD
:1010E00052EB0C0263414CF1000CB8EB070879F1AC
:1010F00000097AF1000A7BEB040BA841B141A2413F
:10110000B3416CF1000CBBEB050BB041B941AA41F6
:10111000BB416CF1000C4CF001068CF0020718EB9F
:10112000060859EB6C095AEB6C0A7BEB6C0B70EB05
:101130006C0471EB6C0572EB670653EB6C076CEBA0
:101140006C0C18EB0C0059EB0C015AEB0C025BF128
:10115000000354F1000455F1000556EBDC7657EB23
:101160000C0770472DE9F14F87B0FFF715FCDDF84C
:101170001080DDF81490DDF818A0FFF797FFBDE8A8
:10118000000FFFF793FF03B05DF8048B88E8FF00C2
:10119000BDE8F08F2DE9F14F87B0FFF7B9FCDDF81E
:1011A0001080DDF81490DDF818A0FFF77FFFBDE890
:1011B000000FFFF77BFF03B05DF8048B88E8FF00AA
:1011C000BDE8F08F064B074A5B7802604FF41C7253
:1011D0008280C3710822002382710372704700BFAE
:1011E000C80E002035FD0000064B074A9B780260C0
:1011F0004FF490728280C3710822FF2382710372C0
:10120000704700BFC80E0020BDF80000F8B5C41D2F
:10121000002824F00704054614BF2046002000F0F3
:1012200035FB071E02DA6FF00B00F8BD0DB9FC426A
:10123000F9D4294E3189F088F37AB27A0331033038
:1012400089B280B20CF0FFF80028ECDB31787378BB
:101250003C440334002D194424F0030400FB01F145
:1012600014BF2046002000F09DFC20440DB900284A
:10127000D9DBB2780346B2B1F17CF378114419445A
:10128000FF29D0DC0330002D20F0030414BF2046DA
:101290000020F289C9B200F0F5FC031EC3DB234431
:1012A0000DB9002BBFDB317C81B1B27872B107334D
:1012B000002D23F0070414BF2046002004F0B0F9ED
:1012C000031EB0DB23440DB9002BACDB002D0CBF9B
:1012D00018460020A9E700BFC80E00201FB572B64F
:1012E000184BDD6AE5B9BFF34F8F1749174BCA6832
:1012F00002F4E0621343CB60BFF34F8F00BFFDE702
:10130000B2FBF6F2DCB20133002AF9D104F110038A
:101310006B4403F80C2C0A2234B901A8A847E2E771
:10132000024600230A26EDE7631E04AEDCB256FA3D
:1013300083F3B0FBF2F602FB1600303003F80C0C1E
:101340003046E9E7C80E002000ED00E00400FA0591
:1013500007B50C4BDA7A8DF801209A7A8DF80020C7
:1013600068461A89DB88ADF80420ADF8023002F037
:10137000CBFB18B1E8219C20FFF7B0FF03B05DF86C
:1013800004FB00BFC80E002038B5054668B30AF05C
:1013900013FF10B94FF0FF3038BD07F027FDB0F54F
:1013A000FA7FF7D8134C1448E562002500F0E8F9FD
:1013B0002A222946204684F830500BF091FA012366
:1013C0006370A3701B23E380238140F203236381B6
:1013D0001F23E38108232374EFF3108472B600F017
:1013E00027FD2CB962B62046D6E76FF01500D3E78B
:1013F0002846D1E7C80E00205113000010B5002880
:1014000042D1244C94F83030032B3AD059B1002A01
:101410003DD00239052937D8DFE801F0031428361A
:101420002B2E137863700020FFF7F0FE0028B7BF63
:101430000123022384F830306FF00B00A8BF84F83A
:10144000303010BD137913B3537903B31188FB29DE
:101450001DD81A2953881AD91B3BE02B17D81368BB
:10146000C4F806300C4B92889A80DCE71378A3709E
:10147000D9E71388E381D6E71388FF2B07D82374B5
:10148000D1E74FF0FF30DCE76FF02C00D9E76FF0C9
:101490001500D6E7C80E0020CE0E0020F8B50D4688
:1014A000064630B329B311F0070422D1124F97F842
:1014B0003030012B02D16FF00B00F8BD032B02D1AD
:1014C0004FF0FF30F9E700F09DF80028F8D02846EB
:1014D000FFF79CFE0028EEDB0EF091FC3046214623
:1014E00002F0A6FBFFF734FF032387F830302046D5
:1014F000E3E76FF01500E0E7C80E002010B5074CD9
:1015000094F83030032B03D102F0AAFB03F084FBE4
:101510000CF08FF8002084F8300010BDC80E0020B9
:1015200050B1074B03F1140253F8041B40F8041B9D
:101530009342F9D1002070476FF01500704700BF4B
:1015400024F9020010B5074B93F830403CB902F083
:1015500039FB0120044900F091F9204610BD4FF0FD
:10156000FF30FBE7C80E0020E911000010B5074B63
:1015700093F830403CB902F039FB2046044900F0B2
:101580007DF9204610BD4FF0FF30FBE7C80E00206C
:10159000C511000010B5054B93F830401CB902F09E
:1015A000DDFA204610BD4FF0FF30FBE7C80E0020EB
:1015B00010B5054B93F830401CB90DF04AF92046A0
:1015C00010BD4FF0FF30FBE7C80E002010B5054BF3
:1015D00093F830401CB90DF03FF9204610BD4FF094
:1015E000FF30FBE7C80E0020024B02681A600020A3
:1015F000704700BFFC0E0020014B1B68184700BF5E
:10160000FC0E0020024B1868003818BF01207047FC
:10161000FC0E00202DE9F743264E0446071D254801
:10162000376003F011FB0228054607D12149204607
:101630000BF0A5FA284603B0BDE8F0830428F9D1E1
:101640003378072B18D13E2000F04AF878B9F378A8
:10165000327901A943EA02236846ADF800300BF065
:10166000D1FC0028DBD053210820FFF737FE0520EE
:1016700000F076F80028EAD0314620460BF0AEFAAA
:10168000B0F5817F01D37221EEE70028C7D094F82E
:10169000008094F80290404600F022F80028BED066
:1016A000B8F13E0FC6D1484600F05AF80028C1D123
:1016B000B5E700BF000F0020074B4FF0FF3141F6A8
:1016C000FF72C3E9001205490022C1E900221F216F
:1016D000C3E90212704700BFC0040020440F00207D
:1016E0003F280CD801380B4BC0F3421200F01F000A
:1016F00053F8223023FA00F000F001007047FF2871
:1017000006D04038C0F34212034B00F01F00EFE751
:1017100001207047C0040020440F00200146074B01
:10172000006849681A4603C240F48C221A6041F0EE
:10173000107242F4FF625A60704700BFC00400207C
:101740000246024B0068516803C37047440F0020F3
:101750000246024B0068516803C37047C80400206A
:101760000138064BC0F3421203EB820300F01F0066
:101770009B6823FA00F000F001007047C0040020CD
:10178000014B1860704700BF4C0F002010B5FFF7E9
:1017900093FF0CF028FC034B1B68044603B19847E9
:1017A000204610BD4C0F00200B880288F0B5C3F313
:1017B0000E049EB204F11803C57CC35A02352A44B4
:1017C0002B4497B213FA82F3013B4288B3FBF7F341
:1017D00013FB07439BB29A42044A93BF22EA0603D3
:1017E000324013439BB20B80F0BD00BF0080FFFF6F
:1017F0004A1E062A08B50346084604D84FF4D1719C
:101800001520FFF76BFD094A914202D940F2A3115E
:10181000F6E711B903B1196008BD2BB11B680022AE
:10182000C3E901211A1D1A600430F5E7FAFFFF7FB2
:1018300010B5114B00EB41041A786389B3FBF2F346
:1018400003FB0223013A1A44B2F5706F027928BFF4
:1018500000231A448378B2FBF3F0194403FB1020F1
:10186000091AB1FBF3F003FB101313446FEA43436F
:101870006FEA5343638110BD500F0020024B03EB0E
:1018800080035960704700BF500F00202DE9F04FD2
:1018900010F0070A85B0054604D040F26111172008
:1018A000FFF71CFD554F07F10C06B1460446B04644
:1018B0004FF0010B57F8043B8DF80BA03BB101A88A
:1018C00098479DF80A30082B01D9E821E7E79DF8F1
:1018D0000B1081BB05B13160B94506F10406E9D1B1
:1018E0002DB3DFF81CE100238EF800301E460222E3
:1018F00058F82200013A60B190F804A08178BAF15A
:10190000FF0F66D14FF000078E4207713CBFCEB289
:101910000123511CECD10BB18EF80060022640F679
:10192000FF6A58F82670002F65D1013EF9D2601B7E
:1019300005B0BDE8F08F9DF80AC0BCF1020FE64685
:1019400001F1050238BF4FF0020E0EF1FF3004EB3B
:1019500042040444CEF100002040BDF80840644435
:10196000013CCCF1000C04EA0C04B4F5803F4FEAD2
:10197000420301D3F82192E775B1C31A336099701D
:101980001C8083F803B09DF80C201A71019A1A810B
:101990004FEA124CA3F806C004FB01049CE758F878
:1019A0002C90B9F1000F06D099F804B0D34504BFCC
:1019B00099F802904F440CF1FF3CBCF1000FEEDAB5
:1019C0003944FF29A0D90BB18EF8006040F22711ED
:1019D00065E794460027F0E707EB41033846A3F894
:1019E0000AA0FFF725FF09F10109BB785FFA89F129
:1019F0008B42F1D899E74FF00009F6E7540F002029
:101A0000500F0020F8B54FF6FF730380184B03EB1F
:101A1000810305461869B8B186780379B3FBF6F2FD
:101A200006FB1233DBB219460A1D00EB4202B2F983
:101A300002705488002F09DB0131B1FBF6F206FB7E
:101A40001211C9B28B42EFD10020F8BDFF29FBD0A3
:101A5000C4F30E03C4782B8024B94FF4D57117203A
:101A6000FFF73CFC5380BDE8F8400BF0CBBC00BF57
:101A7000500F00201D4B03EB810370B51C69054618
:101A800044B3030404D54FF4DC711720FFF726FCA0
:101A9000014620460BF098FCFF28014604D0204662
:101AA000BDE870400BF0AEBCA078B5FBF0F300FBD6
:101AB0001353DBB219460A1D04EB4206B6F9026065
:101AC000002E09DB0131B1FBF0F200FB1211C9B2AB
:101AD0008B42F0D1002070BDFF29FBD08B4204EB7C
:101AE00042021CBF0023E3705580D8E7500F00204E
:101AF000094B03EB810310B51C69014620460BF02E
:101B000063FCFF28014604D02046BDE810400BF0DE
:101B100079BC002010BD00BF500F0020F8B5104B5D
:101B200003EB810307461C69014620460BF04CFC81
:101B3000FF28054611D0E688238953EA064606D0D9
:101B4000014620460BF05EFC01463846B047204671
:101B50002946FFF76DFE0020F8BD0520FCE700BF19
:101B6000500F002038B50E4B827903EB82030446F8
:101B7000186908B9052038BD8278E1799142F9D217
:101B80004B1CE37100EB41035D89B3F90A30002B74
:101B9000F3DBA5800BF036FC20600020EBE700BFF4
:101BA000500F002070B5044610F003000E4603D01D
:101BB0004E211820FFF792FBFFF71AFE054624B1CD
:101BC000034831460460FFF713FE284670BD00BF8E
:101BD0006C0F00202DE9F14FDFF870B09DF828A0C0
:101BE0009DF82C901E46DBF8003007460D469046C7
:101BF0001BB960211820FFF771FB524609214046AE
:101C00000BF064FA4A4684B2092130460BF05EFAC2
:101C100014FA80F1DBF800000BF0ABFB386018B968
:101C2000286001B0BDE8F08F04442C60386853464A
:101C3000414609220BF00EFA28684B46092231462C
:101C400001B0BDE8F04F0BF005BA00BF6C0F0020EB
:101C500070B50E4604460BF04CFA054630460BF0C4
:101C600048FA044B2A1821461868BDE870400BF06A
:101C7000A4BB00BF6C0F0020014B18680BF06DBBBC
:101C80006C0F00201F2AF8B5044613460ED89200A8
:101C9000033222F00303B3F5803F2DD2184DACB1CF
:101CA000A00710D05F210920FFF718FBFF2B4FEA98
:101CB000420204D9FF339A42A8BF1A46E8E77C2AB9
:101CC000B8BF7C22E4E729706C602B8122F003020C
:101CD00001EB81031204D80001276B68120C002568
:101CE000EEB28E4200D3F8BD14B126181F705E60AC
:101CF000104401352833F3E74FF0FF30F3E700BF1E
:101D0000700F002038B5144A147853680021C8B207
:101D1000844203D8AB210920FFF7E0FA18460131CD
:101D200005782833002DF2D000218170012412891A
:101D3000447044688161C161920800F12001051D71
:101D400021F8022B994245F8044B1444F8D10023A2
:101D50004361037038BD00BF700F00202DE9F843C8
:101D60004B7880460C4602F0040602F0FB07D3B124
:101D7000DFB12E4BD4F804901D89B7BB01236370EB
:101D8000AD08A761E76104F120034A46211D04F173
:101D9000280023F8025B984241F8042B2A44F8D12A
:101DA0000023636101E0002FE3D0FF23A370002E26
:101DB00018BF0226A3191B7D032B03D1022F1CBFC2
:101DC0000136F6B2A31901221A7506F10C0204EBD2
:101DD0008606002324F812307268A370C8F8002029
:101DE000A8F804304046BDE8F88300211422617051
:101DF000A0180AF075FDB5F5FF7F0FD26B08ED1A3C
:101E0000ADB209EB0502C4F804902584A260638496
:101E1000C4F80C90A5842261E384C6E7B5F5EE6FA3
:101E20004FF0FF03EBD940F27265EAE7700F002034
:101E3000134B012200214FF0FF309A60C3F80012CB
:101E4000C3F80803C3F80015C3F804259A60C3F863
:101E50000803C3F80015C3F804250A490A4A03F524
:101E600080334FF40040C3F80825C1F88000BFF369
:101E70004F8FBFF36F8FC1F88001C3F808257047FB
:101E800000F0004000E100E00000F63F0A461923A0
:101E900002F8033B0448C368C1F803300369536088
:101EA00043699360704700BF7C0F0020024B5A8C3F
:101EB00002435A845B6A18477C0F0020014B0021C3
:101EC0005B6A18477C0F002010B5154C05F0C4FF65
:101ED00005F044FB208DFFF7F1FF237E63B122461E
:101EE000104952F80C3BE3606368536004F1190039
:101EF000A36893600DF0BFF80B4B228D93E80300AD
:101F000003F018FC236B188803F03EFBA36B94F8D6
:101F1000341094F835009847002384F83C3010BD05
:101F20007C0F00208D1E0000A80F0020034B93F8AB
:101F30003C300BB1FFF7C8BF704700BF7C0F0020DB
:101F400070B51E4C256B636C236495F88C30064687
:101F500094F848000BB10430C0B295F869102EB95E
:101F6000FF2803D195F868308B4201D005F000FEC0
:101F700095F88C30E3B1E06C06F00EF8012384F89C
:101F80006830D5F8E8302366E16CD5F8EC30206C89
:101F9000636605F099FA16B9304606F045F895F8EB
:101FA0006810002006F08AF8022384F83C3070BDE7
:101FB000206C05F0F1FF05F0D1FAECE77C0F002072
:101FC00008B5094B93F83C20022A04D040F2312195
:101FD0002720FFF783F9DA7A42F00102DA72BDE8CE
:101FE0000840FFF771BF00BF7C0F0020032810B529
:101FF0000A4B044605D15A6FD278022A01D100203B
:1020000010BD986F0BF0F5F80028F9D1032CF6D02D
:1020100002F002F880F00100C0B2F1E77C0F00206E
:102020002DE9F043464C94F83C30012B85B0064630
:102030000F465FFA83F904D040F2DC412720FFF716
:102040004DF9256B616F02A80BF0F5FA95F87C301D
:102050009DF808803BB1002185F87C100420FFF733
:1020600025FF85F87E90B8F1030F63D195F8823093
:102070001BB9616F0220FFF719FF032300E0012362
:1020800085F8823095F88C30C3B1236BD5F8E82001
:1020900093F8690022664FF00108D5F8EC206266DB
:1020A00084F868800BF0D8FA94F84890254900220B
:1020B0000346009240464A4605F0C0F926B105B0F5
:1020C000BDE8F043FFF700BF002FF8D0E36F3046C4
:1020D00098470028F3D094F83430002BEFD194F8CF
:1020E0008030DD06C3F3001005D5636F187800F06B
:1020F0000300FFF77BFF636CD4F884201B78C3F3E5
:1021000000132AB9B4F8882013B1B2FA82F35B093C
:10211000628C910709D5636FDB78022BCFD1002049
:1021200005B0BDE8F043FFF70BBF002AC7D103435A
:10213000F5D1C4E79DF80C30002BA0D002239FE717
:102140007C0F0020CC0F002010B5094CD4F884304F
:1021500023B940F2CE412720FFF7C0F8B4F8882019
:10216000216C033218460AF027FC206410BD00BF22
:102170007C0F002010B5064B93F83C2002F0FF04C2
:1021800022B91C7603F0CEFA204610BD0C24FBE7E2
:102190007C0F00200A4B0B4A70B506460D461A60AC
:1021A000FFF7E8FF18B1ED212720FFF797F8064C5D
:1021B000012104F18A000CF0CEFE6664E56470BD76
:1021C00008050020D42900007C0F0020024B0122CA
:1021D00083F8AC20704700BF7C0F0020F0B57D4C29
:1021E00085B002AE86E8030094F83C100A9F01F027
:1021F000FF0511B90AB103B127B94FF4BE71272009
:10220000FFF76CF896E8030004F12C0C8CE803004F
:1022100084F8AC5084F8345084F8AD5084F83550CC
:1022200084F8AE5084F8AF5065842585256BE3674C
:102230006262A76305F0E0FC05F090F995F9700083
:1022400005F068FD686A05F099FEE86905F068FD2B
:1022500095F89C0005F06EFD236B93F89F310BB150
:1022600005F0B8FC95F869209D21012005F0E0FDFE
:10227000594B186805F088FE2B69A367574A6B69AC
:10228000C4F8B03005F5807105F1F00353F8040B84
:1022900042F8040B8B42F9D1D5F80021C4F869202B
:1022A0005A684F4B5A60236B93F88620A2F12501A0
:1022B000012993F868100E4603D993F88700252862
:1022C0005FD193F846322BB1012E03D0012B14BFFE
:1022D0000226012605F13007314638460CF05BFF37
:1022E00031460CF0A3FCAB8F95F86910834228BFF0
:1022F0000346384684F8B4300CF036FF95F8691080
:1023000095F88C70B5F84460042908BF03210CF0DF
:102310008DFC0FB9043080B2B04228BF304695F82A
:102320008C30C6B284F8B56084F84860A3B1D5F8A3
:10233000E83095F8690023660127D5F8EC3063662C
:1023400084F868700BF088F9002203460092234954
:102350003246384605F072F80120FFF7F1FD002300
:1023600023606360A360B5F8803063802B8823808E
:1023700095F89C302371EB6E0BB101221A6005B009
:10238000F0BD203A012A0CD8232893F826210AD040
:1023900012F0010319D192079CD5012918BF02261A
:1023A00098E723280DD193F8262193F86130134044
:1023B00013F001020BD19B078CD5012908BF0E46F3
:1023C000ECE7032908BF042684E71E4682E7164689
:1023D00080E700BF7C0F002008050020CC0F002004
:1023E000E50F002008B50C4B93F83C201AB9BDE866
:1023F0000840FFF769BD93F83C20022A04D040F260
:1024000013212720FEF76AFF1B6BD3F8B801BDE844
:10241000084005F0DBBD00BF7C0F0020014B1876A3
:10242000704700BF7C0F0020014B93F8AE0070474F
:102430007C0F0020024B188DC0F3C020704700BFF6
:102440007C0F0020014B93F8AD0070477C0F0020FB
:102450002DE9FF41324C03460E4602A8216C256B44
:102460000BF0E9F813F001089DF80C7003F002007E
:102470002BD0002384F8B63090B1FFF765FE0DF144
:10248000020201A9D4F8B0000AF05DFF01980AF039
:1024900040FF012230603946D4F8B0000AF0E8FE6F
:1024A000B8F1000F0ED0D5E93A32013342F1000203
:1024B000C5E93A3295F88430012B0CBF0023012383
:1024C00085F8843004B0BDE8F08194F8B630032B71
:1024D00020D801A252F823F079240000E92400005A
:1024E00003250000032500000028EBD0FFF72CFE99
:1024F000D4F8B0000022394604B0BDE8F0410AF03B
:10250000B7BE0028DED0D4F8B00004B0BDE8F0417A
:102510000AF015BF40F27A412720FEF7DFFE00BF28
:102520007C0F00202DE9F04FA84C002389B0CDE9A5
:10253000043394F83C30276B022B80468A4604D043
:1025400040F25F512720FEF7C9FE238D590606D4BD
:102550004020FFF7B3FC238D43F040032385216C1B
:1025600006A80BF068F897F88C30B8F1000F00F06F
:10257000C9809DF819B09DF81C507BB105F006F894
:1025800060B95DB197F884305B4507D1012384F8C9
:102590003530FFF799FC09B0BDE8F08FA9B2A4F877
:1025A0008810F1B1D4F8B0000AF044FEC4F88400F9
:1025B000238D9DF81A2043F40073238597F8833008
:1025C0009A4277D0266B96F88230002B3ED0022BB1
:1025D00011D1A06F04A90AF0D6FD28B940F2144128
:1025E000B0E7C4F88410E3E7D6E93832013342F1AA
:1025F0000002C6E9383296F87E30002186F8821053
:1026000023B186F87E101020FFF750FC96F87D303D
:10261000A3B14FF0000986F87D9001F0E7FC10B9F6
:1026200040F22B418EE749460820FFF73FFCD6E9F0
:102630003832013342F10002C6E9383296F883306D
:10264000012B0CBF0023012386F88330238D43F434
:10265000006323854FF0000997F884305B4527D14C
:102660009DF81830266B022B26D88BB385B3238DAB
:1026700096F88C6043F48053238505F02FFA0428E4
:1026800094F8B53006D1002E14BF1B221F229342AE
:1026900028BF1346AB422BD3D4F88450002D3FD033
:1026A00094F8AC30002B00F08F802020FFF706FC60
:1026B000002535E0C146CFE7032B09D1238D216CDE
:1026C000012043F4805386F87C002385FFF7EEFB5E
:1026D00096F88430013B18BF012386F88430FDB1A1
:1026E000D6E93A32013342F10002C6E93A32DFE775
:1026F00094F83430012043F0100384F8343006F0AD
:10270000C9FED5E70BB104F07DFF94F8AD3001337D
:1027100084F8AD30238D002543F480632385A946DA
:1027200097F88B309BB1D7F8E03097F868002366B4
:102730000026D7F8E430636684F868600AF08CFFFE
:10274000234900960346FB22304604F077FEBAF197
:10275000000F3FD1628C94F8AD30120703D5626F41
:10276000D278022A36D0012B34D8E36F0120984763
:1027700080B394F834A0BAF1000F2BD11DB105A994
:102780000120FFF765FE266B96F88C2000238DF85C
:102790000D3094F848300AB10433DBB2FF2B96F8C1
:1027A000681003D196F869308B4202D0FF2005F003
:1027B000DFF996F88230032B00F2F380DFE813F0A4
:1027C00054008400D800E9004546A9E77C0F0020AA
:1027D000CC0F002005F092FC002D00F0EA8005A946
:1027E0000320FFF735FEB9F1000F0DD0B4F8072034
:1027F000B4F805301343B7F8802013431EBFB4F874
:1028000009300133A4F80930B8F1000F00F0D3808B
:10281000B4F805300133A4F80530002384F8AD3056
:10282000684802F09FFE049830B10AF072FD216BF7
:102830000022027202F04CFA059B33B1216B002298
:102840001A720C22059802F011FA002D7FF4A1AE45
:10285000238D1B063FF59FAE8020FFF72FFB238DB6
:1028600043F08003238596E694F8B430ADF80E303B
:102870005548A6F8583001F0A9FB50B1616F4FF4EC
:102880008070FFF713FB012386F87D3084F8AF30AA
:102890001CE0A06F0DF10D020DF10E010AF050FCCD
:1028A000606788B196F8C73073B99DF80D302BB9C1
:1028B00003808370606F01210CF04DFB636FBDF8E6
:1028C0000E205A700123E1E7404B6367616F96F871
:1028D00083300878DB0003F0080200F0F3031343B1
:1028E00096F88420920002F00402134323F01003B0
:1028F0000B7000F00300FFF779FB0028606F03788E
:1029000018BF4FF0100A4AEA030A80F800A096F8B0
:102910008B30002B48D04378002B45D0E06C05F07D
:102920003BFB002384F86830D6F8E0302366616F03
:10293000D6F8E430E06C636604F0C6FD96F86910E2
:10294000012005F0BBFB626F1188A4F8801091781C
:102950001F4A012384F8AE30917084F83C30002D7A
:102960003FF441AF05A90220FFF772FD00253AE7C9
:10297000B6F85830A06FADF80E300DF10D020DF124
:102980000E010AF0DDFB606700289BD140F2D121E7
:10299000D8E50D4801F01AFB002893D140F2DB2165
:1029A000D0E540F2E921CDE505F0F6FA04F0D6FDD8
:1029B000C4E7012517E7B4F807300133A4F807305E
:1029C0002EE700BFA80F0020F00F00200610002007
:1029D000FC0F0020C11F0000252500002120000061
:1029E0002D1F00000B2808B504D940F2FB3106204A
:1029F000FEF774FC014B33F8100008BD38F90200F3
:102A00002DE9F04F8BB0044615460293894690F8A5
:102A100069B00BF068FF064694F8A001FFF7E2FFEB
:102A200094F887300393064485F00103B6B205930A
:102A300085BB94F8E431032B2CD1039B0D2B29D1BA
:102A4000B4F844324B4525D1D4F8EC31C4F8D83130
:102A5000A369B4F8BC21C4F8DC31B4F832321344B1
:102A6000C4F8E031204604F009FCD4E99223A262C4
:102A7000B4F84622A285D4F85022226241F64B5285
:102A80009342A3618CBF0023012384F87230022398
:102A900084F8E431B4F83072B4F88080A9EB070709
:102AA0003FB204F50073A9EB0808002F04930FFA56
:102AB00088F86EDAD4E986234746C4E98A230123DD
:102AC0000493CC4B1B7803F0FF05002B54D006F089
:102AD00081F9054600284FD0B4F8D031012B6DD9CB
:102AE00094F8E431022B69D094F8FA51002D65D1A5
:102AF00094F8A001FFF776FF94F8E43100F5C8667A
:102B0000012BB6B2D9B24CD194F88A30D4F828A0AF
:102B1000032B40D1D4F8DC5155443146D4F8DC01C4
:102B200006F01CF9D4F8D831C4F8D801A0EB030A98
:102B3000D4F8E0313146284603FB0AFA06F00EF9D4
:102B4000D4F8E851C4F8E801451B3146A06906F005
:102B500005F9AA44B4F8BC51D4F8E0314544ED1B62
:102B6000DB432B44D4F8EC51451B05FB03A50123A3
:102B7000C4F8EC0184F8FA3194F8E431DFF874A277
:102B8000032B00F28E81DFE813F01B0016016B00AF
:102B90003701029B94E728460CF070F800EB0A0519
:102BA000BBE7A069314606F0D9F8B4F8BC51D4F8B7
:102BB000EC314544ED1BC31A5D43D8E70025DBE744
:102BC000012100200CF05AF88046A06A31464044AA
:102BD00006F0C4F83146C4F8E801A06906F0BEF872
:102BE00007A9C4F8EC0108A805F090FA079B009328
:102BF000D4E98A01DDE9082309F0C4F983462046B7
:102C00000AF04EFDD4F83432A66A94F869001E44E6
:102C100005F0C8FBD4F8E811A6F194077F1A00F577
:102C200023404FF47A734744A130B0FBF3F0A38DF7
:102C3000A7EB0B0730313F1A03EB410194F8690011
:102C40000AF01AFDD4F83432FB1A2230B3F5917F22
:102C5000CAF8040058D240F2DE413020FEF73EFBB5
:102C6000A36AD4F8DC013146184406F077F83146FF
:102C7000C4F8E801A06906F071F8C4F8EC01204638
:102C80000AF00EFDB4F8BC31A66AD4F8DC71002B52
:102C900040F08D80029B002B00F0898094F8690041
:102CA00005F080FB3E44D4F8E871943ED4E98623D5
:102CB000F61BD4F8207280463E4494F86900B61A98
:102CC00005F070FB4FF47A7300F2E73708F5234004
:102CD000B7FBF3F73744A130B0FBF3F0D4F8E811B9
:102CE000D4F8D831D4F8E021303102FB0311A38DA0
:102CF0003F1A03EB410194F869000AF0BDFC01237F
:102D0000CAF8040084F8E431A6696FF4F4731E4431
:102D1000D4F8EC31F61ADAF804309E4228BF1E4689
:102D2000D4E98A327F1BDF1942F100024FF000081C
:102D3000C4E98472C4F8B86184F8008204F13000F8
:102D40000CF010FAB4F8A811A4F83092D4E9842356
:102D5000A1EB09090FFA89F9C145C4E98A23C8BF63
:102D6000022384F80882C8BF84F80832039B064413
:102D70000D2BC4F80462029B00F09680002B40F0FB
:102D8000948094F8E431002B00F0AD80A169D4F870
:102D9000EC3104F50070C91A0BF017FF80B200285F
:102DA00000F0A180149B03B118800120ABE0D4F89F
:102DB000E801374492E7D4F8EC21A369D4F8E001A4
:102DC000D4F8D8119B1A5F43B4F8BC319844C3437C
:102DD0009844D4F8E831303301FB0033A18D94F8E6
:102DE000690002FB083301EB43010AF045FCCAF815
:102DF000040089E734100020A369D4F8EC219B1A61
:102E00005F4394F88630252B03D094F88730252B28
:102E10000AD1B4F84432A9EB03031A0404D494F899
:102E20004732002B18BF9B46049B63B3B4F8BC31F8
:102E30004BBBD4E98623D4E9880182428B4102D37B
:102E400040F2325109E794F8690005F0ABFAD4F882
:102E500020220646D4E98601A2F194031B1A3B44C2
:102E600094F86900049305F09DFA049B00F2E7379B
:102E70004FF47A7206F52340B7FBF2F71F44A130F6
:102E8000B0FBF2F03F1AB4F8BC11D4F8EC31414475
:102E900059433031490058460AF0EEFB1B4B58604D
:102EA00032E740F24A51D8E6EBB1B4F8D01121B381
:102EB000B4F8D22194F8D431A4F8D22102FB033320
:102EC000994202F101000EDD94F808325BB1002353
:102ED00084F80832A4F8D20101F090FF00F0070056
:102EE000013084F8D40194F8FB0104F5007108F076
:102EF00091F820B940F29351AFE60A46DAE7059B14
:102F000084F8F83100200BB0BDE8F08F34100020B9
:102F10002DE9F04104460D46164690F8F03003F0D6
:102F2000FF071BB10C273846BDE8F0810146454834
:102F300007F024FF20288046F4D05822394604F1B7
:102F4000C80009F0CDFC84F8C880C4F8CC50FF2339
:102F500084F8F03035B101F069FF00F0070001306E
:102F600085F8D40102234FF00008A4F8003184F85A
:102F7000F88005F045FF00F19E0520460CF085FD28
:102F8000ADB2014670B30BF0AEFC00F5CD6189B275
:102F9000304605F0E3FE3044C4F8FC000DF09DF926
:102FA000281841F10001C4E94201012084F8D00051
:102FB000A4F826800CF027FEE53E361AC4F8D4604B
:102FC0004FF0FF326FF00043C4E9442394F8C80087
:102FD00004F1F80108F01EF848BB40F2CD11302092
:102FE000FEF77CF920460CF073FCDFF85C80E530DE
:102FF000C4F8FC00B8F8080048B1E08C38B101F022
:1030000015FFB8F80830B0FBF3F202FB13000544DB
:103010000DF063F92D1841F10001C4E94251002E71
:10302000CED0751941F10001C4E94451CEE7D4E98D
:1030300042230021C4E93823C4E93A2320460CF096
:1030400041FD70E749D9000034100020F0B500239D
:1030500085B0CDE9003301238DF806306846FEF7D0
:1030600081FD70B11D4E0123B3720027CDE90277B7
:1030700002A8FEF777FD0546C8B10023B37205B07C
:10308000F0BD00980AF01AFDE8E790F8FB0108F09F
:1030900013FA94F8FB0108F033FE94F8FB0184F86E
:1030A000E45107F09FFE202384F8FB31DEE7029B0A
:1030B000002BDDD093F8FB21202AD9D018884FF6B9
:1030C000FF739842D9D02946FEF712FD0446002826
:1030D000DBD14FF49B713020FEF700F93410002053
:1030E000054B00220121DA7219709A7242F21072B5
:1030F0001A81FFF7ABBF00BF34100020014BD8721C
:10310000704700BF3410002008B504F0EDFC044BFC
:10311000DA6882422ABF987A002080F0010008BD58
:10312000341000202DE9F7430446062900F2C5803B
:10313000DFE801F0047A67777E83BE00D0E986235A
:10314000D0E9880182428B4149D294F8FA31002BB0
:1031500045D094F8E431032B41D194F869900BF0F9
:10316000C2FB064694F8A001FFF73CFCD4E9862395
:10317000D4F82072D4F8B851804606444846BF1AA5
:1031800005F008F92D1A484605F00CF900F5234022
:103190004FF47A73A130B0FBF3F02B1AA3F1740251
:1031A000B6B25208D43B08F5C8689D3273431FFA83
:1031B00088F8B3FBF8F360335908A2EB53039F423E
:1031C00002D30A44974201D905F00AFEA0693146AC
:1031D00005F0C4FD0023C4F8EC0184F8FA31384B43
:1031E0009B7A03F0FF0263B9B4F8AC11009201239B
:1031F0002046FFF705FC38B140F2DC613020FEF7D5
:103200006DF8042384F8E43104F078FE07F0D4FB71
:10321000B4F88020A4F8F6210023A4F8323284F810
:10322000F93103B0BDE8F083032380F8E431F8E717
:103230000CF04EFEC4E98801F3E78569D0F8EC3163
:10324000DFF87C809D4288BFED1A98F80B3098BF5C
:1032500000251BB9036B9D4228BF1D4604F13000B9
:10326000D4F8B8710BF07EFF0744022008F0A8FBE9
:10327000ED1B25EAE575854228BF05460221284653
:1032800008F006FC00B92F44012340F2D31239465E
:1032900020460BF0BEFFD4F8B831C8F80C00A06986
:1032A000184408F025FB0028BBD140F28A31A5E77D
:1032B00003B0BDE8F0430AF0F3B94FF4F3619DE7C2
:1032C000341000202DE9F84306460C4615467ABB1B
:1032D00004F00AFCD4E94289074684F8D05084F807
:1032E000F0500121D4F8CC0001F0FEF9D4F8CC0064
:1032F000C0E9868994F8C83080F8FB31C0E98A8932
:10330000C0F834720AF0D2FA20B140F21C713020B9
:10331000FDF7E4FF04F0F2FD07F04EFB074994F8D7
:10332000C800324606F0A6F828B940F2AB71EEE7C5
:1033300040F2C271EBE7BDE8F88300BFCBD60000D6
:10334000014B1881704700BF34100020F0B5070C06
:10335000A7F5AA42144B543A012A03EA90231FD935
:1033600027F4004042F6AA22801A18BF012000224A
:10337000162116461F2487EA060562EA050501356F
:1033800010D0DD03ADB245EA5606E503ADB2013912
:1033900045EA52024FEA53034FEA5404EBD1F0BD21
:1033A0000020E4E70020FAE7E0FF3F00304BF0B5F3
:1033B0005A88B0F85C70B0F85A609D88974228BF70
:1033C0001746964228BF16461B2E85B00C462ED0B7
:1033D000B5F5A47F2DD040F648039D4201A928BF32
:1033E0001D460AF0CEFCBDF80A309F4228BF1F469A
:1033F000BDF80C30E780AB4228BF2B462381BDF8D7
:1034000006309E4228BF1E46BDF8083066809D42A9
:1034100028BF1D46A580FF232370E3881B3B9BB27A
:10342000E02B08D940F277613920FDF757FF1B2FB9
:10343000CED105B0F0BD63881B3B9BB2E02B02D917
:1034400040F27961F0E72389A3F5A4739BB2B3F549
:10345000E06F02D940F27B61E6E7A388A3F5A4738D
:103460009BB2B3F5E06FE4D940F27D61DCE700BFC9
:103470004410002010B501210020FEF739FB04465E
:1034800070B90121FEF7F6FA044620B940F29131F5
:103490003920FDF723FF034B93F906100CF0E0F9F8
:1034A000204610BD4410002008B50BF026FB00F0AC
:1034B0005DFF00F005FC0BF0B6FD01F0B7F902F07E
:1034C000C1F8094B00221A60084B1B214FF4A4706D
:1034D00098801A805980064B064818605A829A755F
:1034E00099805A749A8208BD0C050020441000206F
:1034F0006C14002003021B00044B41F64C52C3E93C
:1035000002221B221A74FFF7CFBF00BF6C140020E9
:103510002DE9FF41344DAB680363344B83610446AE
:103520000AF003FB064600F0BBFB2B7C84F8383026
:103530002F4B668710F0200F1B681DBFAA88698873
:10354000A4F85A101B2208BFA4F85A20A4F85C2043
:103550001BB194F9701020889847AE7CEF7CB5F8C9
:10356000148016B900F0A2FB064687BB00F09EFB54
:10357000074676B368B303A920468DF80C608DF832
:103580000D70ADF80E800BF075FB01236A88E385A2
:10359000AB886978019103332978009103329BB29B
:1035A00092B204F1140104F11000FEF713FB236939
:1035B00013B940F24E6114E0636913B940F24F61F0
:1035C0000FE0002004B0BDE8F0810920FAE7002EEA
:1035D000D1D120880021FEF7A1FA0028F5D040F2D1
:1035E00024613920FDF77AFE6C14002000093D00AB
:1035F00010050020F7B505460E460CF064F90028CA
:1036000074D028460CF041FA40B1B6F80130013BC5
:103610007F2B03D91224204603B0F0BD28460CF0BE
:1036200038FA08B90C24F6E728460AF033FB0028DC
:10363000F8D128460CF005F904460028F2D12846B6
:1036400002F0C0FC0028E5D0B6F80170F17842F233
:10365000107328465F430CF004FA28460CF00DFA6C
:10366000014658B93A462846FFF752FC044600285E
:10367000D1D041F69F313920FDF730FE21460DF1C2
:103680000600FEF7BFF9064670B3214601F02CF89C
:10369000BDF806303380284631460CF004FA28463F
:1036A0000CF0FDF9A0B9296A28460CF0FAF9014698
:1036B0003046FFF72DFF04460028ACD13A4631468C
:1036C0002846FFF725FC044620B141F6C231D2E777
:1036D0000121EDE7064B9B68002B9CD0024606F5C6
:1036E0008D713046984796E70D2494E7422492E77F
:1036F00044100020024B1B6803B118470C20704790
:103700000C050020034B5A8802801B788370002030
:10371000704700BF6C14002037B583781A2B05461C
:1037200009D8042B05D9012202FA03F3134A1342E4
:1037300005D112241AE0292B01D03B2BF9D128887E
:10374000B0F5706FF5D269460BF026FA88B9019B87
:1037500093F8182102F0FF046AB9AA7883F81921B6
:10376000FF2283F8182168460BF038FC204603B08E
:1037700030BD0224FAE70C24F8E700BF200038042B
:103780000188A1F11B039BB2E02B0CD84288A2F563
:10379000A4739BB244F24810834204D8034B002028
:1037A00059809A8070471220704700BF4410002053
:1037B000034B5A889B88028043800020704700BFDB
:1037C0004410002038B504784278857804F001036D
:1037D00052EA030104F0020401D1112038BDBCB942
:1037E000002DFAD0002B08BF144601E00024254626
:1037F00020460AF091FA0028EFD028460AF08CFA09
:103800000028EAD0054B00209C74DD749882E5E71F
:10381000002BEBD114461D46EAE700BF6C140020D4
:1038200013B5008869460BF0B7F918B10224204699
:1038300002B010BD019A92F8E431DBB292F8A820F0
:10384000002AF3D113F0FB0FF0D0019890F82A3141
:103850000BB13A24EBE790F8D23003F0FF04002BD1
:10386000F7D190F8C9309B0706D1FF2380F82A31A1
:1038700068460BF0B3FBDAE70249CA300BF0FBFBFA
:10388000D5E700BF41F70000F0B50778EF2F85B00E
:1038900004460D4603D91225284605B0F0BDB0F800
:1038A0000130ADF80C309DF90C209DF80C30002A49
:1038B000F1DB9DF80D209107EDD1DA063FD49E068D
:1038C00003F0030238D5002AE5D11807E3D4637862
:1038D000190711D42179E278E07942EA012261796D
:1038E00042EA0142A17941EA0021207A41EA0041FD
:1038F0008A42D0D81F2ACED9627A013A062ACAD87B
:10390000A27A032AC7D813F0040102D1023A012A8D
:1039100003D8E27A012ABED811B9A27C032ABAD808
:1039200013F01001227D19D0012AB4D1227E012A80
:10393000B1D8B1B91125AFE7032AC6D1ABE713F06F
:10394000600FA8D103F00F0203F00703052BBED0D0
:10395000931E012BBBD9002A9DD1B8E7022AE5D1DD
:1039600099E7DA0743D46378227D03F01801082928
:1039700042D1022ADED11B0744D5BFB2012138460D
:10398000FEF7B6F8064600284BD101213846FEF76F
:1039900071F8064600284AD0264B93F906100BF022
:1039A0005FFF30460CF066F821462870E074304620
:1039B0000BF0AAFFE37E0546002B3FF46DAF002815
:1039C0007FF46AAF316B02466846FEF7C7F9306B89
:1039D0002A46012109F07FFD316B68460422FEF77B
:1039E000BDF9306B2A46294609F075FD54E700F011
:1039F00019F90028B7D19DE7022ABCD0227F002AFE
:103A0000B9D097E7E279A37943EA0223227A43EA1D
:103A10000243B3F5804FB0D90CF0A2FC0028ACD122
:103A200088E70AF037F90028BBD00C2534E70725D2
:103A300032E700BF4410002070B50579042D8AB02C
:103A400003465CD84488B4F5804F58D82D48465D6D
:103A5000284400214279857AC07BADF8001042F0FD
:103A6000100242EA460242EA850242EAC00202F03D
:103A70001F028DF80020BDF80020ADF809201A883B
:103A80008DF80B208DF80E40120A240A8DF80D10C7
:103A90008DF810108DF80C208DF80F405A7B8DF8A2
:103AA00011205A798DF812209A79D3F807008DF8F1
:103AB0001320B3F80B209B7B8DF81A307F238DF8F1
:103AC0001B3001238DF8081005908DF81D10ADF8FE
:103AD00018208DF81C308DF81E3002A88DF81F10AC
:103AE0008DF820108DF823108DF824108DF82110FA
:103AF0008DF822106946FFF7C7FE0AB070BD12208C
:103B0000FBE700BF50F902000278034672B1427829
:103B100062B142881A2A09D982881A2A06D9044A27
:103B2000006810609B8893800020704712207047C7
:103B30006C140020024B02689A600020704700BF9E
:103B40006C1400200378A3F10A02112A9DBF024AD7
:103B500000201374122070476C14002008B5052053
:103B600000F090F803F0BAFB014B024A9A6008BDDE
:103B700044100020AD33000008B502F00BFAFFF747
:103B8000AFFABDE80840014802F0EEB9501000203D
:103B900010B50B4C012384F8023102F003FA0CF04B
:103BA000ECF80AF0A8FF04F203112046FEF7F2FA3F
:103BB000002009F02FFCBDE8104001F03DB800BF27
:103BC0005010002010B5064C064904F502700AF0AA
:103BD0004FFE04F503700449BDE810400AF048BEEA
:103BE00050100020140500201C05002010B5094CC1
:103BF000094904F502700AF03BFE04F50370074919
:103C00000AF036FE04F504700549BDE810400AF0DC
:103C10002FBE00BF50100020240500202C050020DE
:103C200034050020014B93F802017047501000202A
:103C300010B5074C00F0DCFFD4F808020AF010FEC3
:103C4000FFF75AFC01F00AF9012384F8143210BD81
:103C500050100020014B93F81402704750100020C0
:103C600010B5074CD4F80C020AF0FAFDD4F8100293
:103C70000AF0F6FDFFF718FC002384F8143210BD9B
:103C800050100020C2080549012300F0070003FA84
:103C900000F08B5C18438854704700BFD0040020AC
:103CA000014BD3E900017047D0040020034B186892
:103CB000C0F30020400040F001007047D004002015
:103CC00008B505F093F8084A002332F82310814222
:103CD00005D302EB83039B78044A137008BD0133BC
:103CE0000C2BF2D10023F7E764F9020065120020E3
:103CF00010B544682388A4F8683194F8683084F8D3
:103D00006711012B06D0022B04D040F24931062066
:103D1000FDF7E4FA84F86A3194F86930012B01D098
:103D2000022BF2D184F86B31044904F5AF700BF02B
:103D3000A2F9002384F8243110BD00BFEBE8000095
:103D4000406808490388A0F85A3190F8603080F83C
:103D50005C3190F8613080F85D3100F251100BF069
:103D600084B900BF01E900002DE9F04389460979D3
:103D700099F80580446801F0070108F007084B1E18
:103D800008F1FF3202EA08020B40134394F887203F
:103D900094F88670232A85B005462CD104F1870655
:103DA000002B43D140460AF0FAFD68B394F868301E
:103DB000984229D094F82421012A0CBF94F8262196
:103DC00094F8642018EA020F30D0212F1CD094F808
:103DD000612018EA020F17D10138C0B2032805D8B4
:103DE000013B534ADBB2032B105C0AD940F21F217E
:103DF0000620FDF773FA212F40F0968004F1860625
:103E0000CEE7D35C834211D808460AF0C8FDB0B3B0
:103E100094F86930834232D094F82431012B0CBFDE
:103E200094F8273194F86530194228D194F8243158
:103E3000012B14D11E212846FFF75AFF212F12D142
:103E40006B68182283F80921092283F8862093F8E9
:103E5000C230002B3AD140F2B321AE20C9E7002393
:103E600084F82431EAE70023284633700BF01AFA6D
:103E70001821284605B0BDE8F0430BF03BBAB9F86D
:103E8000067003AB0093424620463B460AF092FD83
:103E90006A680446F8B992F82431012B18D101461A
:103EA0002846FFF725FF34706B6803F187029642BE
:103EB00002D1002283F887206B6803F187029642C3
:103EC0004FF000042DD128460BF0ECF900202CE037
:103ED00082F82401E8E7B2F88030A2F84472DB43AC
:103EE0001F44BFB247F6FD739F4206D9282382F8CC
:103EF000A930284601F036F9DEE792F887300D2B1D
:103F000002D00A3B012B01D82A23F0E79DF80C30A0
:103F100082F846329DF80D3082F8473225233370FF
:103F2000CAE783F8C240D1E7022005B0BDE8F083BC
:103F300094F90200044B002283F822204FF6FF720E
:103F40009A84DA841A85704766120020054B9A8C91
:103F5000824201BF002283F822204FF6FF729A842A
:103F6000704700BF66120020014BD884704700BF25
:103F700066120020094A0346908C4FF6FF71884272
:103F800006D192F82210012905D01A60012070474D
:103F90000020186070470020704700BF66120020A4
:103FA000064B93F82220012A1FBF0120DA8C83F8E8
:103FB00022009A8408BF0020704700BF66120020CC
:103FC000014B1885704700BF66120020064B024661
:103FD000198D988C884205D193F8220018B113608E
:103FE000012070470020704766120020094B998C11
:103FF0001A8D914201D0002070474FF6FF729A84CB
:1040000093F82220002AF6D0002283F822200120F3
:10401000704700BF66120020054B998C1A8D9142A3
:1040200003BF93F82200B0FA80F0400901207047E6
:104030006612002050B90A4A1346012003F8010B0A
:104040000868C2F801008A889A807047012805D163
:10405000034B0A689A608A88D8719A81704700BFBA
:104060009012002048B90A4B187880B1D3F801208B
:10407000B3F805300A608B807047012806D1044BE5
:10408000D87920B19A680A609B89F4E700207047CC
:104090009012002020B9054B187800F001007047FD
:1040A00001280ABF014B0020D879F6E790120020C2
:1040B000F7B500228B888DF80600ADF8043008684B
:1040C0000C4B8DF80720019D1C78014603F5AC735D
:1040D000D0B2844201D8082009E0D3E90076AE428C
:1040E00008BF8F4203F1080302F10102F0D103B0CF
:1040F000F0BD00BFA012002030B5094B01465C782E
:10410000002203F58173D0B2844201D8082005E073
:1041100013F8015B8D4202F10102F4D130BD00BF02
:10412000A0120020F8B52E4C6278013AD2B22318C2
:10413000824293F80251627032D0130101019E1C39
:104140008F1C2644274406F1100C56F804EB47F860
:1041500004EB6645F9D1823382312344214403F1D3
:10416000100653F8047B41F8047BB342F9D1A6183A
:10417000211896F8023181F802314FF48577062331
:1041800013FB027213FB0070A318A258225004EB19
:10419000000C9B88ACF8043096F83A3181F83A313B
:1041A0002846FFF7A9FF082818D12378013BDBB286
:1041B0009D42237012D02B3304EBC30393E803001A
:1041C00005F12B0204EBC20282E803002078FFF71E
:1041D00093FF08281CBF241884F80251F8BD00BFC3
:1041E000A0120020F0B5254D95F8984189B02246DF
:1041F00005F29911684608F0DFFB214668460AF08F
:104200009BFC0446B8B300EB4001C9B202A8FDF71D
:10421000F3F9601E95F8A161C0B2012495F89821C8
:1042200005E0731CB3FBF2F102FB1133DEB206F1C1
:1042300020030DEB030111F8203C002BF1D100EB22
:10424000400220326A4406EB46032B4412F8187CE5
:1042500083F8A27112F8177C12F8162C83F8A37158
:1042600083F8A42101F8204C0138AB19C0B2FF2813
:1042700083F89941D2D109B0F0BD00BFA01200204F
:1042800070B5064688B00C46002A4ED0294A92F8EE
:10429000A131D01890F8991119B9FF212820FDF704
:1042A0001DF803EB43011144013391F8A251E5706D
:1042B00091F8A35191F8A41161710021257180F842
:1042C000991192F89811B3FBF1F001FB103382F8C9
:1042D000A13192F8C23123B9174902F5DD700AF015
:1042E000C7FE657905F03F0545F0400565710D2273
:1042F0000021684608F0F4FAE3788DF80F3023794E
:104300008DF80E3004AA0423694630468DF80D500E
:1043100008F088F89DF81F3023709DF81E306370F8
:104320009DF81D30A37008B070BD03216018FDF723
:1043300063F9D6E7A0120020E5410000044B5A784B
:10434000824286BF1B1893F84A010020704700BFC5
:10435000A0120020044B5A78824286BF1B1893F8A3
:1043600042010020704700BFA0120020064B00222F
:104370004FF461711A8083F8C32183F8C421A3F834
:10438000C61183F8C2217047A0120020014B83F8A8
:10439000C4017047A01200202DE9F04782468946EB
:1043A00017469846FFF784FE08280546064603D0C0
:1043B000FFF7A2FE082863D1334C6378072B61D83E
:1043C000082D18D12678731C072E237003D96C2171
:1043D0002820FCF783FF06F12B03DAB2D9F800009E
:1043E00044F8320004EBC20104EBC303B9F8042023
:1043F0008A8083F806A065786B1C290163704B1CCA
:1044000007F11002234412F8010D03F8010FBA421C
:10441000F9D1813108F11003214413F8012D01F87D
:10442000012F9845F9D1102140460AF0C2FB2544DE
:10443000102185F8420138460AF0BBFB85F802617D
:10444000667885F84A01002385F83A3131460F48ED
:104450000AF072FB314605460D480AF06DFB012D4E
:1044600003D8002818BF0135EDB284F89851002513
:10447000284684F8A151FFF7B5FE2846BDE8F0872D
:104480001220FBE70720F9E7A0120020E21300202A
:10449000EA13002010B5064B5878013840B20028C6
:1044A00000DA10BDC4B22046FFF73CFE601EF5E7FF
:1044B000A0120020014B83F8C3017047A012002016
:1044C000014B93F8C3017047A0120020431E9BB21A
:1044D0004AF2B71293429DBF024BA3F8C6010120D6
:1044E00000207047A0120020014BB3F8C6017047AE
:1044F000A012002030B50A4B5C7884420ED91844D3
:1045000090F802012B3003EBC004A5790D7053F82D
:1045100030001060A3889380012030BD0020FCE7AC
:10452000A01200200246074810B590F8C34124B1FC
:10453000417821B1023002F0F7FE204610BD0C4652
:10454000FBE700BFA01200202DE9F74F2F4C9A4641
:10455000637883428046894656D9231893F842519E
:1045600085F00105F9B193F84A31E3B945F0020746
:104570000135BAF1000F18D1FA070AD5062101FB5F
:10458000084104EB0810524601F585718230FFF7AF
:1045900077FEBB0734D504EB08105246494602307B
:1045A000FFF76EFE2CE02F46E3E794F8A1614FF091
:1045B000010B002DE0D0A319019393F8991199B93B
:1045C0000092DAB100F01AFC06EB46012144019B8F
:1045D00081F8A2014FEA102C009A81F8A3C1000CC7
:1045E00081F8A40183F899B194F898310136B6FBAB
:1045F000F3F103FB1166F6B2013DDAE747F0040779
:10460000384603B0BDE8F08F0027F9E7A01200207C
:10461000074B5A78824209D91A1892F842212AB9CE
:10462000062202FB003000F58570704700207047BD
:10463000A0120020064B5A78824281BF1B1893F8C3
:104640003A01B0FA80F0400998BF0020704700BFDF
:10465000A0120020F8B50E46074606213046154642
:104660000AF0A7FA044640B10A482946427800F504
:104670009D7008F035F92046F8BD314638460AF0FD
:1046800077FA08281FBF034BC018012480F83A515D
:10469000F1E700BFA012002030B50024A0F8404090
:1046A000B0F8444042F210754C43B4FBF2F4A0F869
:1046B0004440541E05FB0343B3FBF2F3A0F8423021
:1046C000084BB3FBF2F30133A0F84830838F05FBAE
:1046D0000344436BB4FBF2F459438463B1FBF2F23D
:1046E000426330BD005A620270B504460D4659BBA4
:1046F0004FF41C7208F0F4F8012384F88E306FF048
:10470000360384F8D930042384F8DA306FF03B03A1
:1047100084F8DB306F2384F8DC306FF03C0384F8DE
:10472000DD306FF07F0384F8DF302B2384F8D8303E
:10473000FE2384F80E317F2384F88530202384F80B
:10474000DE5084F8FB3170BD012922D10023A0F88E
:10475000BC3180F8B331154B82691344B3FBF2F3DB
:10476000C0F8B03040F6B833A0F8B4301146438CEE
:104770007830FFF791FF07F06DFF30B1E069FEF789
:10478000E5FD10B984F89F51DDE7002384F89F31DF
:10479000D9E70229D7D1B0F85232D0F84C2281693A
:1047A000BDE870407830FFF777BF00BF7FC3C90115
:1047B000034B80F870101B680BB1008818477047D6
:1047C0003C050020074B93F900301844142804DC02
:1047D00010F17F0F03DB40B27047142070476FF079
:1047E0007E0070476814002007B57F230DF1070095
:1047F0008DF8073003F056FC9DF9073068B10A4A7E
:104800005078404243FA80F0142808DC10F17F0F02
:1048100007DB40B203B05DF804FB1846FAE714204A
:10482000F8E76FF07E00F5E768140020024B0022E5
:104830001A705A70704700BF681400200346407811
:1048400098B1DB783F2B05D8084AD35C1B1A584235
:104850005841704703F11402D2B2022A04D8034A25
:10486000134413F8AC3CF1E70120704798F90200BB
:104870003F2908B5C17003D80B4B5B5C437008BD82
:1048800001F11403DBB2022B04D8074B194411F8D1
:10489000AC3CF3E7FF2904D04FF48A612A20FCF7EF
:1048A0001DFD0123EAE700BF98F902002DE9F34757
:1048B00089466946144698460AF06EF9054600286E
:1048C0003AD1019E34B9012486F88D40204602B0C9
:1048D000BDE8F087D6F810A02146504608F0DBFB73
:1048E000014658B3174B5B88A34229D3504608F0C2
:1048F0000CFD96F88D300580002B0CBF4946022137
:10490000074685700AF027FB22464146F81C08F04E
:1049100053F82146504608F0F8FB044618B97E21AA
:104920002B20FCF7DBFC68460AF058FB019BA3F840
:10493000AA5186F88D50C9E70124C7E70446C5E7A8
:104940002C46C3E76C140020024B987DC04300F056
:10495000010070476C140020034B987D80F002002A
:10496000C0F34000704700BF6C14002083230B701D
:10497000014B1B78CB707047841400202DE9F84F51
:10498000D0F80480D8F8146030460D4608F0AFFC2B
:10499000044618B9FF211020FCF7A0FC0146304660
:1049A00008F0B3FCB4F800B01FFA8BF7824617B9D1
:1049B00040F20311EFE71E4B1B6800F103098BB9AE
:1049C000B8F80030AB8000236B72A5F806B09AF8F7
:1049D000003003F00303012B0FD0022B0DD040F267
:1049E0001D11D8E7B8F800003A46494698470446F2
:1049F0000028E5D12046BDE8F88F2B72304608F03C
:104A00008AFC044610B94FF49371C4E7FB2F02D916
:104A100040F23511BFE7286810B94FF49B71BAE72F
:104A20003A46494607F0C8FF304608F0D1FBE1E7B7
:104A3000400500202DE9F347DFF85481824689467E
:104A400005270025D9F8103053B11B7A1BB98021F6
:104A50001020FCF743FCD9F81040B4B9002070E0F6
:104A6000D9F80440237A012BF8D0EFF3108372B603
:104A7000D9F804201268C9F8042003B962B6C9F84D
:104A80001040237A0BB9A621E2E7267AF6B2277204
:104A9000731E0B2B69D8DFE803F065061C336268D0
:104AA0003C6868686857636813B94FF4D771CFE7FB
:104AB0002046514698470420EFF3108372B6227ABD
:104AC000052AD1B25BD12572C9F81050ABB962B6D4
:104AD00013E0636813B940F2B711B9E751462046B5
:104AE00098470346C3F30723012BADF80400C0B277
:104AF0003ED0022BE0D1C9F810500028A2D020E00F
:104B0000636813B940F2BF11A2E72046984700201E
:104B1000D2E763680BB9B5219AE70B228AF8002027
:104B200019881869AAF80310012200248AF80220C3
:104B30008AF805208AF8064008F04AFBC9F81040B8
:104B4000042002B0BDE8F087D8F800305146204676
:104B50009847034660B1C9F810500220F1E74FF4BE
:104B6000FB7175E740F2F91172E74FF4FE716FE7E0
:104B700026720028E5D1002B7FF464AF6EE711B9EF
:104B800040F21D2164E7002B7FF45CAF62B659E769
:104B90004405002070B5144C1426231D3246002114
:104BA000184607F09DFE03460125257400210433B5
:104BB000324604F11800C4E9013307F091FE84F88D
:104BC00024500A4A04F11C03C4E906330023E362BB
:104BD000236384F83430C4F83530C4F8393084F8AD
:104BE0003D30136070BD00BF8414002040050020DC
:104BF00010B5084C2378FF2B04D04FF4A07110207F
:104C0000FCF76CFB07F056FC2070BDE81040FFF786
:104C1000C1BF00BFDD04002010B5034C207807F0B1
:104C200065FCFF23237010BDDD040020014B1878C4
:104C300007F06CBCDD040020014B024A1A6070478B
:104C4000440500207D49000010B506490446FFF7E1
:104C5000F1FE28B920460449BDE81040FFF7EABE3E
:104C600010BD00BF9C1400208814002010B513460E
:104C7000027A22B140F299211020FCF72FFB0A465C
:104C8000BDE81040014601480AF0CFB98814002061
:104C9000044890F834301BB903492C300AF0E2B9CB
:104CA000704700BF841400201DF000000346064832
:104CB00090F83E203AB190F83D2022B900F8353BFB
:104CC00002490AF0CFB97047841400206D490000F2
:104CD00010B50A46037A23B140F2A1211020FCF757
:104CE000FDFA0146BDE81040014807230AF09DB9CE
:104CF0009C1400201346027A0AB1037270470A46D8
:104D0000014601480AF091B9881400201B234FF096
:104D10001B128384038482618382C260038539B954
:104D20004FF4A473034AC3844384C261C382026103
:104D3000704700BF480148010346F0B4B3F854205F
:104D4000B3F84840B3F84460DF8FB3F84250944260
:104D500028BF14460846B3F84C20B3F85610DC8739
:104D60008A4228BF0A46B3F84610A3F8422091426F
:104D700038BF1146A64238BF2646A742A3F8446072
:104D8000A3F846101FD1AA1A18BF0122B3F84A503F
:104D9000B3F85040B3F852709E8FB3F84010A5425C
:104DA00028BF2546B3F84E409D87BC4228BF3C46ED
:104DB000AE42A3F8404002D1A14200D12AB1F0BCDA
:104DC00003490AF058B90122E0E7F0BC704700BF80
:104DD0007DF000000B8BA2F80B304B8BA2F80D304E
:104DE0008B8BA2F80F30CB8BA2F809000249A2F8F6
:104DF000113010460AF039B9CDF00000094AD2E965
:104E00000003434083EAB01181EA43214FEAF343B0
:104E10005360054B116058434FEAF06000EB80008F
:104E2000704700BFC4140020BB79379E094AD2E9FD
:104E30000003434083EAB01181EA43214FEAF34380
:104E40005360054B116058434FEAF06000EB80005F
:104E5000704700BFE0040020BB79379E10B50A4CB4
:104E600009480821FCF7C8FBD4E900231343F7D015
:104E7000064CFFF7DBFF2060FFF7D8FF2368606078
:104E80000343F6D010BD00BFE0040020C41400208E
:104E9000174B184A9A60184A5A60184A1A60184AFA
:104EA0009A62184ADA62184ADA60184A9A61184A0D
:104EB0001A63184A1A62184ADA64184A9A64184A35
:104EC0005A62184B184A9A60184A5A62184ADA62AB
:104ED000184A1A61184A5A61184A9A61184A1A639C
:104EE000184A9A64184ADA64184A9A63704700BFED
:104EF0004805002083F30000B3F300001FF4000016
:104F000085F50000D9F500008D520000EFF5000096
:104F1000D154000071530000BDF60000D9F6000026
:104F2000B9530000540600209FF300008FF60000E4
:104F300011F60000B5F5000035F600001153000031
:104F40005FF7000007F70000F9F6000075F60000B3
:104F5000044B054A5A65054B054A1A65054A5A65C8
:104F6000704700BF48050020D3F40000540600201D
:104F7000B9F4000031F50000054B064A9A65064A6F
:104F80001A66064B064A9A65064ADA65704700BFFC
:104F90004805002035EA0000693D00005406002065
:104FA00085E90000D7EA0000252A034610B5084627
:104FB00018D8012A19D9023A232A16D8DFE802F0B4
:104FC0001A1524232330153415233A454915154D58
:104FD00023236060767D1515151515151515151506
:104FE0001588939BFF2A00F08E8040F2D441512017
:104FF000FCF774F95A681B78012B0CBF92F810313A
:1050000092F81931037110BD5968D1F8C621426078
:10501000D1F8CA2182605B68D3F80431C360F2E73B
:105020005B6893F81031EDE70146BDE81040184683
:1050300000F018BA0F2303715923437100238371C1
:105040006923C37110230372DDE75B6893F80A31AB
:10505000D8E7BDE8104000F0F5B95A681B784BB9A5
:1050600092F8103133B192F80D31037192F80C318E
:105070004371C8E792F80B31037192F80A31F7E7F0
:105080005B68B3F854200271120A4271B3F812211E
:105090008271120AC271B3F850200272120A42726F
:1050A000B3F8103183721B0AC372ACE75B6893F8E4
:1050B0002621027193F82731DAE75B6893F82421FF
:1050C000012AF4D093F86420027193F86530CFE799
:1050D000114A1468002C96D001461A462320234614
:1050E000BDE8104018470C4A1468002C8BD00146CC
:1050F0001A462420F3E7084A1468002C83D001469E
:105100001A462520EBE75B68BDE8104093F83F2284
:10511000D3F8401209F027BF600700203F2803D8CA
:10512000064B53F82000704700F11403DBB2022B4A
:1051300001D8AC38F4E70020704700BF48050020D4
:105140003F2803D8064B53F82000704700F11403A2
:10515000DBB2022B01D8AC38F4E70020704700BF67
:1051600054060020F7B545682E6904464FF6FF77D0
:105170000DF102010DF101023046ADF8027007F0A9
:10518000DFFF01A9304607F0FEFF40B1019808F0AB
:10519000C0F8616800220272FFF79AFDE8E704494F
:1051A00005F1A00003B0BDE8F04009F05EBF00BF0C
:1051B00017F30000F0B5044685B00D46FF2600F851
:1051C000896C10F88A3CF3B1184F3B781BB1482129
:1051D0001F20FCF783F80C21381DFCF70DFA3E70F8
:1051E000002304F8893C2A46072302F8033BD4F83D
:1051F0000930C5F80330D4F80D305360D4F81130BD
:10520000936005B0F0BD01A80C21FCF7F5F9A4F5F9
:105210001673039AC3F8042101AB03CB44F8920C34
:1052200044F88E1C04F88A6CDAE700BFCC14002026
:1052300010B5054C23782BB90C21201DFCF7DCF9A7
:10524000FF23237010BD00BFCC140020024690F84D
:10525000CE31BBB990F8CF3103F0FF010BB1002084
:105260007047094B18780028F9D01970D968C2F82E
:105270000411043303CBC2F8C601C2F8CA11FF23DC
:1052800082F8CE3101207047CC14002038B5426836
:1052900092F8873004460D463BB1132B05D0113BE5
:1052A0000B2B94BF0820012038BD92F8C83013B9E9
:1052B000204609F0EDFF6268D5F80E30C2F8BE3125
:1052C000D5F81230C2F8C2316368D5F81620C3F899
:1052D00000211A88A3F861226A68C3F86322AA68C9
:1052E000C3F867226368AA89A3F86B226368002564
:1052F00083F8CE516068054900F5167009F0B2FEDA
:105300006368152283F887202846CDE7B551000051
:1053100038B5436893F887201C2A044604D04FF41C
:10532000DE711F20FBF7DAFF93F8C8101D880022FA
:1053300083F8C72003F5C97069B10B4983F8C82009
:10534000A3F89C5183F89B2109F08CFE636800222E
:1053500083F8872038BD012283F89B11A3F89C5164
:10536000024983F89E21EFE771F5000063F5000024
:1053700038B54568AB6F13F0010417D14A680C4B80
:10538000896813400B4AC5F8D830C3F3076343F06C
:1053900008030A4085F8DB30C5F8DC2009F078FF07
:1053A000AB6F43F00103AB67204638BD0120FCE73B
:1053B0002FC904F76FDB008010B5406890F8863085
:1053C000042B27D14B688A68C0F8D830C3F3076331
:1053D00043F0080380F8DB300023C0F8DC2080F8BD
:1053E000C23080F8863090F8742102F0FF049AB938
:1053F0000388A0F8763180F875414B68C0F87831A1
:105400008B68C0F87C31054900F5B67009F02AFEBA
:10541000204610BD0124FBE71C46F9E753F60000C7
:10542000406890F8743153B90388A0F876311A2394
:1054300080F87531024900F5B67009F013BE704767
:1054400053F6000010B50446FEF72AFC034A044B4D
:1054500002400B406260A36010BD00BF2FC904F77B
:105460006FDB008037B50C464568FEF719FC084A2B
:10547000084B0A4095F8D8100192034000930B4066
:105480008DF800306B4603CB6060A16003B030BD87
:105490006FDB00802FC904F7DB0410B5144604D578
:1054A000037D13B10023436310BD436B013343639A
:1054B0000AF036F9D0E90D239A42F5D3002343636D
:1054C00002492046BDE8104009F0D5BDAFF6000006
:1054D00038B5446894F88630012B054602D0A36F96
:1054E00098073AD494F8C9309A0715D40A7984F801
:1054F000D320B1F80520A4F8D420B1F80720A4F8EF
:10550000D620D80743F0020284F8C9200FD51449E9
:1055100004F1CA0009F0AFFD94F8C930D90711D4DD
:10552000A36F9A0708D555214020FBF7D7FE94F8C2
:105530002A31002BEBD1EFE743F00203A3672846A3
:1055400009F0A6FE94F88630012B4FF0000003D13D
:1055500084F8860084F8C20038BD0120FCE700BF53
:1055600041F7000070B545680446FFF73DF9054B6B
:1055700085F885001B6801461BB12046BDE87040D8
:10558000184770BD68070020024B1B6803B118471D
:10559000704700BF64070020F0B5204E0546307804
:1055A0000024147080B1431E7768DBB2181B0128F9
:1055B0000BDC07EBC40057F834604068884208BF32
:1055C000AE4212D114700120F0BD1819461007EB3D
:1055D000C60E57F836C0DEF80460AC45C0F347008D
:1055E0008E412CBF03460446E0E7B54271EB000054
:1055F00002D214700020E7E707EBC30057F83340EE
:105600004068884208BFAC4201D11370DBE7A54275
:10561000814128BF01331370ECE700BFEC14002078
:1056200010F0070208B503D063214820FBF756FEAF
:1056300018B1034B197258601A70C80008BD00BF3A
:10564000EC140020014B00221A707047EC1400206B
:10565000014B187A704700BFEC1400202DE9D343AA
:105660000AF09FF80DF1070207460E46FFF794FF78
:1056700098B9114C2278237A93420ED06168134670
:105680006FF0604E9DF80700984209D301EBC0030C
:10569000C3E9007601322270012002B0BDE8D08358
:1056A00003EB0E0001EBC000D0E90089013BC0E92B
:1056B0000289DBB2E6E700BFEC14002037B50AF040
:1056C00070F80DF10702FFF767FF0446A0B10C4A1E
:1056D0009DF8070013785568013BDBB213701A1A66
:1056E000D2B2411CD200834238BF002205EBC10177
:1056F00005EBC00007F0AEF8204603B030BD00BF98
:10570000EC1400200A46822302F8033B0448036895
:10571000C1F803304368536083689360704700BFEB
:10572000F514002002481622002107F0D9B800BF66
:10573000F514002082B002AB03E903000B48437D5F
:1057400093B1530610D50A880280D1F82022B1F80F
:1057500080304260D1F824220549826043800222D1
:105760000C3002B0FFF7C6BA02B07047F514002043
:1057700005570000074A03461068D3F85120C0F8C7
:105780000320B3F85520A0F8072093F8501009F033
:1057900066BB00BF1415002070B504460E46658830
:1057A000407F15F00401134618BF04F15F01324633
:1057B000FEF7CAFE4207054623D4C3070BD50123D3
:1057C00084F85030607FFEF723FF0368C4F851303F
:1057D0008388A4F8553015F0020F4FF001050ED064
:1057E000094B84F85E501868D4F85F30C0F809306F
:1057F000B4F86330A0F80D30294609F039FB28468B
:1058000000E0002070BD00BF1415002038B5C38D26
:105810000F4D0133C3F30E03C385AB7C04462BB19C
:1058200002F032FC01F0B2FD0023AB7400232B71B7
:1058300094F871302BB101212046BDE8384008F0C2
:10584000EAB9637C13B1E28D9A42F4D20021F3E706
:105850001415002010B5094C2379012B02D02379AF
:10586000022B05D1A37C1BB102F00EFC01F08EFDD2
:10587000E069BDE81040FFF7C9BF00BF1415002064
:1058800070B5294C2379012B07D02379022B04D042
:1058900040F657412D20FBF721FDA0B90125A37C3F
:1058A0001BB102F0F1FB01F071FD002D3AD0E0696F
:1058B00008F029F9002830D002F0CEFA236ABDE8BA
:1058C00070409B6818472168E26911F8095B02F192
:1058D0005103E80992F8502009F010F90028DDD0B2
:1058E0002068002109F0E9FA0028D7D02379E0697F
:1058F000012B05D02379022B02D04FF44361C9E775
:105900002379226A03F180435269013B05F00F01BC
:1059100052F8233098470546C1E7E069BDE870407A
:10592000FFF774BF70BD00BF14150020074A03467F
:10593000D06903B909B9FFF769BF1379126A03F196
:1059400080431269033B52F8233018471415002096
:105950002DE9F043032985B0054690467BD090F8A9
:1059600070300529DBB202D14288D60760D5002B02
:105970005ED10127DFF8E89099F81260B6B109F01E
:1059800001F9082888F8000014D002AA0DF10701D7
:10599000FEF7B0FD20B940F6CF612D20FBF79EFC4D
:1059A0009DF8070002A909F008FF064698F80030A4
:1059B000082B08D1D9F8001011F8030BC0F38010A0
:1059C00009F0FBFE0646D9F8001095F8572011F8AB
:1059D000030B05F15803C0F3801009F08FF8D9F8D4
:1059E0000010044611F8030BC0F3801009F0C0F852
:1059F0008146FEF71FFE014640B1B9F1080F1BD0EA
:105A00004846FEF79BFC80F00101C9B298F80000FF
:105A1000082815D094B96B7F1C1A604260416B88CE
:105A20005A0706D421B996B9EB7C93B1BB4210D08A
:105A3000002005B0BDE8F0830021E7E70120EEE794
:105A400014B181F00104E4B204F00100E7E730464C
:105A5000EFE70120EDE743889B07E9D5022789E7B7
:105A6000141500202DE9F04F85B008230DF1070231
:105A7000052104468DF80730FFF76AFF064620B976
:105A80000026304605B0BDE8F08F744F3968FA7CC7
:105A900011F8030B07F11403C0F3801009F02EF87E
:105AA00080460028ECD13B68216A184691F88E2088
:105AB00010F8035B02EA551202F0010281F88E2011
:105AC000D3F80320C1F803208288A1F807201946E3
:105AD000226A11F81F0BC0F38010907009798DF8BD
